{
  "_format": "hh-sol-artifact-1",
  "contractName": "NetSpanToken",
  "sourceName": "contracts/NetSpanToken.sol",
  "abi": [
    {
      "inputs": [],
      "stateMutability": "nonpayable",
      "type": "constructor"
    },
    {
      "anonymous": false,
      "inputs": [
        {
          "indexed": true,
          "internalType": "address",
          "name": "owner",
          "type": "address"
        },
        {
          "indexed": true,
          "internalType": "address",
          "name": "spender",
          "type": "address"
        },
        {
          "indexed": false,
          "internalType": "uint256",
          "name": "value",
          "type": "uint256"
        }
      ],
      "name": "Approval",
      "type": "event"
    },
    {
      "anonymous": false,
      "inputs": [
        {
          "indexed": true,
          "internalType": "address",
          "name": "delegator",
          "type": "address"
        },
        {
          "indexed": true,
          "internalType": "address",
          "name": "fromDelegate",
          "type": "address"
        },
        {
          "indexed": true,
          "internalType": "address",
          "name": "toDelegate",
          "type": "address"
        }
      ],
      "name": "DelegateChanged",
      "type": "event"
    },
    {
      "anonymous": false,
      "inputs": [
        {
          "indexed": true,
          "internalType": "address",
          "name": "delegate",
          "type": "address"
        },
        {
          "indexed": false,
          "internalType": "uint256",
          "name": "previousBalance",
          "type": "uint256"
        },
        {
          "indexed": false,
          "internalType": "uint256",
          "name": "newBalance",
          "type": "uint256"
        }
      ],
      "name": "DelegateVotesChanged",
      "type": "event"
    },
    {
      "anonymous": false,
      "inputs": [
        {
          "indexed": true,
          "internalType": "address",
          "name": "previousOwner",
          "type": "address"
        },
        {
          "indexed": true,
          "internalType": "address",
          "name": "newOwner",
          "type": "address"
        }
      ],
      "name": "OwnershipTransferred",
      "type": "event"
    },
    {
      "anonymous": false,
      "inputs": [
        {
          "indexed": true,
          "internalType": "address",
          "name": "from",
          "type": "address"
        },
        {
          "indexed": true,
          "internalType": "address",
          "name": "to",
          "type": "address"
        },
        {
          "indexed": false,
          "internalType": "uint256",
          "name": "value",
          "type": "uint256"
        }
      ],
      "name": "Transfer",
      "type": "event"
    },
    {
      "inputs": [],
      "name": "DOMAIN_SEPARATOR",
      "outputs": [
        {
          "internalType": "bytes32",
          "name": "",
          "type": "bytes32"
        }
      ],
      "stateMutability": "view",
      "type": "function"
    },
    {
      "inputs": [
        {
          "internalType": "address",
          "name": "_newMember",
          "type": "address"
        },
        {
          "internalType": "uint256",
          "name": "_amount",
          "type": "uint256"
        }
      ],
      "name": "addNewDAOMember",
      "outputs": [],
      "stateMutability": "nonpayable",
      "type": "function"
    },
    {
      "inputs": [
        {
          "internalType": "address",
          "name": "owner",
          "type": "address"
        },
        {
          "internalType": "address",
          "name": "spender",
          "type": "address"
        }
      ],
      "name": "allowance",
      "outputs": [
        {
          "internalType": "uint256",
          "name": "",
          "type": "uint256"
        }
      ],
      "stateMutability": "view",
      "type": "function"
    },
    {
      "inputs": [
        {
          "internalType": "address",
          "name": "spender",
          "type": "address"
        },
        {
          "internalType": "uint256",
          "name": "amount",
          "type": "uint256"
        }
      ],
      "name": "approve",
      "outputs": [
        {
          "internalType": "bool",
          "name": "",
          "type": "bool"
        }
      ],
      "stateMutability": "nonpayable",
      "type": "function"
    },
    {
      "inputs": [
        {
          "internalType": "address",
          "name": "account",
          "type": "address"
        }
      ],
      "name": "balanceOf",
      "outputs": [
        {
          "internalType": "uint256",
          "name": "",
          "type": "uint256"
        }
      ],
      "stateMutability": "view",
      "type": "function"
    },
    {
      "inputs": [
        {
          "internalType": "address",
          "name": "account",
          "type": "address"
        },
        {
          "internalType": "uint32",
          "name": "pos",
          "type": "uint32"
        }
      ],
      "name": "checkpoints",
      "outputs": [
        {
          "components": [
            {
              "internalType": "uint32",
              "name": "fromBlock",
              "type": "uint32"
            },
            {
              "internalType": "uint224",
              "name": "votes",
              "type": "uint224"
            }
          ],
          "internalType": "struct ERC20Votes.Checkpoint",
          "name": "",
          "type": "tuple"
        }
      ],
      "stateMutability": "view",
      "type": "function"
    },
    {
      "inputs": [],
      "name": "decimals",
      "outputs": [
        {
          "internalType": "uint8",
          "name": "",
          "type": "uint8"
        }
      ],
      "stateMutability": "view",
      "type": "function"
    },
    {
      "inputs": [
        {
          "internalType": "address",
          "name": "spender",
          "type": "address"
        },
        {
          "internalType": "uint256",
          "name": "subtractedValue",
          "type": "uint256"
        }
      ],
      "name": "decreaseAllowance",
      "outputs": [
        {
          "internalType": "bool",
          "name": "",
          "type": "bool"
        }
      ],
      "stateMutability": "nonpayable",
      "type": "function"
    },
    {
      "inputs": [
        {
          "internalType": "address",
          "name": "delegatee",
          "type": "address"
        }
      ],
      "name": "delegate",
      "outputs": [],
      "stateMutability": "nonpayable",
      "type": "function"
    },
    {
      "inputs": [
        {
          "internalType": "address",
          "name": "delegatee",
          "type": "address"
        },
        {
          "internalType": "uint256",
          "name": "nonce",
          "type": "uint256"
        },
        {
          "internalType": "uint256",
          "name": "expiry",
          "type": "uint256"
        },
        {
          "internalType": "uint8",
          "name": "v",
          "type": "uint8"
        },
        {
          "internalType": "bytes32",
          "name": "r",
          "type": "bytes32"
        },
        {
          "internalType": "bytes32",
          "name": "s",
          "type": "bytes32"
        }
      ],
      "name": "delegateBySig",
      "outputs": [],
      "stateMutability": "nonpayable",
      "type": "function"
    },
    {
      "inputs": [
        {
          "internalType": "address",
          "name": "account",
          "type": "address"
        }
      ],
      "name": "delegates",
      "outputs": [
        {
          "internalType": "address",
          "name": "",
          "type": "address"
        }
      ],
      "stateMutability": "view",
      "type": "function"
    },
    {
      "inputs": [
        {
          "internalType": "uint256",
          "name": "blockNumber",
          "type": "uint256"
        }
      ],
      "name": "getPastTotalSupply",
      "outputs": [
        {
          "internalType": "uint256",
          "name": "",
          "type": "uint256"
        }
      ],
      "stateMutability": "view",
      "type": "function"
    },
    {
      "inputs": [
        {
          "internalType": "address",
          "name": "account",
          "type": "address"
        },
        {
          "internalType": "uint256",
          "name": "blockNumber",
          "type": "uint256"
        }
      ],
      "name": "getPastVotes",
      "outputs": [
        {
          "internalType": "uint256",
          "name": "",
          "type": "uint256"
        }
      ],
      "stateMutability": "view",
      "type": "function"
    },
    {
      "inputs": [
        {
          "internalType": "address",
          "name": "account",
          "type": "address"
        }
      ],
      "name": "getVotes",
      "outputs": [
        {
          "internalType": "uint256",
          "name": "",
          "type": "uint256"
        }
      ],
      "stateMutability": "view",
      "type": "function"
    },
    {
      "inputs": [
        {
          "internalType": "address",
          "name": "spender",
          "type": "address"
        },
        {
          "internalType": "uint256",
          "name": "addedValue",
          "type": "uint256"
        }
      ],
      "name": "increaseAllowance",
      "outputs": [
        {
          "internalType": "bool",
          "name": "",
          "type": "bool"
        }
      ],
      "stateMutability": "nonpayable",
      "type": "function"
    },
    {
      "inputs": [],
      "name": "name",
      "outputs": [
        {
          "internalType": "string",
          "name": "",
          "type": "string"
        }
      ],
      "stateMutability": "view",
      "type": "function"
    },
    {
      "inputs": [
        {
          "internalType": "address",
          "name": "owner",
          "type": "address"
        }
      ],
      "name": "nonces",
      "outputs": [
        {
          "internalType": "uint256",
          "name": "",
          "type": "uint256"
        }
      ],
      "stateMutability": "view",
      "type": "function"
    },
    {
      "inputs": [
        {
          "internalType": "address",
          "name": "account",
          "type": "address"
        }
      ],
      "name": "numCheckpoints",
      "outputs": [
        {
          "internalType": "uint32",
          "name": "",
          "type": "uint32"
        }
      ],
      "stateMutability": "view",
      "type": "function"
    },
    {
      "inputs": [],
      "name": "owner",
      "outputs": [
        {
          "internalType": "address",
          "name": "",
          "type": "address"
        }
      ],
      "stateMutability": "view",
      "type": "function"
    },
    {
      "inputs": [
        {
          "internalType": "address",
          "name": "owner",
          "type": "address"
        },
        {
          "internalType": "address",
          "name": "spender",
          "type": "address"
        },
        {
          "internalType": "uint256",
          "name": "value",
          "type": "uint256"
        },
        {
          "internalType": "uint256",
          "name": "deadline",
          "type": "uint256"
        },
        {
          "internalType": "uint8",
          "name": "v",
          "type": "uint8"
        },
        {
          "internalType": "bytes32",
          "name": "r",
          "type": "bytes32"
        },
        {
          "internalType": "bytes32",
          "name": "s",
          "type": "bytes32"
        }
      ],
      "name": "permit",
      "outputs": [],
      "stateMutability": "nonpayable",
      "type": "function"
    },
    {
      "inputs": [],
      "name": "renounceOwnership",
      "outputs": [],
      "stateMutability": "nonpayable",
      "type": "function"
    },
    {
      "inputs": [],
      "name": "s_maxSupply",
      "outputs": [
        {
          "internalType": "uint256",
          "name": "",
          "type": "uint256"
        }
      ],
      "stateMutability": "view",
      "type": "function"
    },
    {
      "inputs": [],
      "name": "symbol",
      "outputs": [
        {
          "internalType": "string",
          "name": "",
          "type": "string"
        }
      ],
      "stateMutability": "view",
      "type": "function"
    },
    {
      "inputs": [],
      "name": "totalSupply",
      "outputs": [
        {
          "internalType": "uint256",
          "name": "",
          "type": "uint256"
        }
      ],
      "stateMutability": "view",
      "type": "function"
    },
    {
      "inputs": [
        {
          "internalType": "address",
          "name": "",
          "type": "address"
        },
        {
          "internalType": "uint256",
          "name": "",
          "type": "uint256"
        }
      ],
      "name": "transfer",
      "outputs": [
        {
          "internalType": "bool",
          "name": "",
          "type": "bool"
        }
      ],
      "stateMutability": "pure",
      "type": "function"
    },
    {
      "inputs": [
        {
          "internalType": "address",
          "name": "",
          "type": "address"
        },
        {
          "internalType": "address",
          "name": "",
          "type": "address"
        },
        {
          "internalType": "uint256",
          "name": "",
          "type": "uint256"
        }
      ],
      "name": "transferFrom",
      "outputs": [
        {
          "internalType": "bool",
          "name": "",
          "type": "bool"
        }
      ],
      "stateMutability": "pure",
      "type": "function"
    },
    {
      "inputs": [
        {
          "internalType": "address",
          "name": "newOwner",
          "type": "address"
        }
      ],
      "name": "transferOwnership",
      "outputs": [],
      "stateMutability": "nonpayable",
      "type": "function"
    }
  ],
  "bytecode": "0x610140604052633b9aca00600b553480156200001a57600080fd5b506040518060400160405280600c81526020017f4e65745370616e546f6b656e0000000000000000000000000000000000000000815250806040518060400160405280600181526020017f31000000000000000000000000000000000000000000000000000000000000008152506040518060400160405280600c81526020017f4e65745370616e546f6b656e00000000000000000000000000000000000000008152506040518060400160405280600381526020017f4e53540000000000000000000000000000000000000000000000000000000000815250816003908162000105919062000577565b50806004908162000117919062000577565b50505060008280519060200120905060008280519060200120905060007f8b73c3c69bb8fe3d512ecc4cf759cc79239f7b179b0ffacaa9a75d522b39400f90508260e081815250508161010081815250504660a0818152505062000183818484620001f360201b60201c565b608081815250503073ffffffffffffffffffffffffffffffffffffffff1660c08173ffffffffffffffffffffffffffffffffffffffff1681525050806101208181525050505050505050620001ed620001e16200022f60201b60201c565b6200023760201b60201c565b6200072c565b6000838383463060405160200162000210959493929190620006cf565b6040516020818303038152906040528051906020012090509392505050565b600033905090565b6000600a60009054906101000a900473ffffffffffffffffffffffffffffffffffffffff16905081600a60006101000a81548173ffffffffffffffffffffffffffffffffffffffff021916908373ffffffffffffffffffffffffffffffffffffffff1602179055508173ffffffffffffffffffffffffffffffffffffffff168173ffffffffffffffffffffffffffffffffffffffff167f8be0079c531659141344cd1fd0a4f28419497f9722a3daafe3b4186f6b6457e060405160405180910390a35050565b600081519050919050565b7f4e487b7100000000000000000000000000000000000000000000000000000000600052604160045260246000fd5b7f4e487b7100000000000000000000000000000000000000000000000000000000600052602260045260246000fd5b600060028204905060018216806200037f57607f821691505b60208210810362000395576200039462000337565b5b50919050565b60008190508160005260206000209050919050565b60006020601f8301049050919050565b600082821b905092915050565b600060088302620003ff7fffffffffffffffffffffffffffffffffffffffffffffffffffffffffffffffff82620003c0565b6200040b8683620003c0565b95508019841693508086168417925050509392505050565b6000819050919050565b6000819050919050565b600062000458620004526200044c8462000423565b6200042d565b62000423565b9050919050565b6000819050919050565b620004748362000437565b6200048c62000483826200045f565b848454620003cd565b825550505050565b600090565b620004a362000494565b620004b081848462000469565b505050565b5b81811015620004d857620004cc60008262000499565b600181019050620004b6565b5050565b601f8211156200052757620004f1816200039b565b620004fc84620003b0565b810160208510156200050c578190505b620005246200051b85620003b0565b830182620004b5565b50505b505050565b600082821c905092915050565b60006200054c600019846008026200052c565b1980831691505092915050565b600062000567838362000539565b9150826002028217905092915050565b6200058282620002fd565b67ffffffffffffffff8111156200059e576200059d62000308565b5b620005aa825462000366565b620005b7828285620004dc565b600060209050601f831160018114620005ef5760008415620005da578287015190505b620005e6858262000559565b86555062000656565b601f198416620005ff866200039b565b60005b82811015620006295784890151825560018201915060208501945060208101905062000602565b8683101562000649578489015162000645601f89168262000539565b8355505b6001600288020188555050505b505050505050565b6000819050919050565b62000673816200065e565b82525050565b620006848162000423565b82525050565b600073ffffffffffffffffffffffffffffffffffffffff82169050919050565b6000620006b7826200068a565b9050919050565b620006c981620006aa565b82525050565b600060a082019050620006e6600083018862000668565b620006f5602083018762000668565b62000704604083018662000668565b62000713606083018562000679565b620007226080830184620006be565b9695505050505050565b60805160a05160c05160e05161010051610120516137e66200077c60003960006112e401526000611326015260006113050152600061123a01526000611290015260006112b901526137e66000f3fe608060405234801561001057600080fd5b50600436106101a95760003560e01c8063715018a6116100f9578063a66cc92711610097578063d505accf11610071578063d505accf1461051e578063dd62ed3e1461053a578063f1127ed81461056a578063f2fde38b1461059a576101a9565b8063a66cc927146104b6578063a9059cbb146104d2578063c3cda52014610502576101a9565b80638e539e8c116100d35780638e539e8c1461040857806395d89b41146104385780639ab24eb014610456578063a457c2d714610486576101a9565b8063715018a6146103b05780637ecebe00146103ba5780638da5cb5b146103ea576101a9565b806339509351116101665780635c19a95c116101405780635c19a95c146103165780635d641847146103325780636fcfff451461035057806370a0823114610380576101a9565b806339509351146102865780633a46b1a8146102b6578063587cde1e146102e6576101a9565b806306fdde03146101ae578063095ea7b3146101cc57806318160ddd146101fc57806323b872dd1461021a578063313ce5671461024a5780633644e51514610268575b600080fd5b6101b66105b6565b6040516101c39190612583565b60405180910390f35b6101e660048036038101906101e1919061263e565b610648565b6040516101f39190612699565b60405180910390f35b61020461066b565b60405161021191906126c3565b60405180910390f35b610234600480360381019061022f91906126de565b610675565b6040516102419190612699565b60405180910390f35b6102526106b2565b60405161025f919061274d565b60405180910390f35b6102706106bb565b60405161027d9190612781565b60405180910390f35b6102a0600480360381019061029b919061263e565b6106ca565b6040516102ad9190612699565b60405180910390f35b6102d060048036038101906102cb919061263e565b610701565b6040516102dd91906126c3565b60405180910390f35b61030060048036038101906102fb919061279c565b610795565b60405161030d91906127d8565b60405180910390f35b610330600480360381019061032b919061279c565b6107fe565b005b61033a610812565b60405161034791906126c3565b60405180910390f35b61036a6004803603810190610365919061279c565b610818565b6040516103779190612812565b60405180910390f35b61039a6004803603810190610395919061279c565b61086c565b6040516103a791906126c3565b60405180910390f35b6103b86108b4565b005b6103d460048036038101906103cf919061279c565b6108c8565b6040516103e191906126c3565b60405180910390f35b6103f2610918565b6040516103ff91906127d8565b60405180910390f35b610422600480360381019061041d919061282d565b610942565b60405161042f91906126c3565b60405180910390f35b610440610998565b60405161044d9190612583565b60405180910390f35b610470600480360381019061046b919061279c565b610a2a565b60405161047d91906126c3565b60405180910390f35b6104a0600480360381019061049b919061263e565b610b3b565b6040516104ad9190612699565b60405180910390f35b6104d060048036038101906104cb919061263e565b610bb2565b005b6104ec60048036038101906104e7919061263e565b610bc8565b6040516104f99190612699565b60405180910390f35b61051c600480360381019061051791906128b2565b610c05565b005b6105386004803603810190610533919061293f565b610d09565b005b610554600480360381019061054f91906129e1565b610e4b565b60405161056191906126c3565b60405180910390f35b610584600480360381019061057f9190612a4d565b610ed2565b6040516105919190612b02565b60405180910390f35b6105b460048036038101906105af919061279c565b610fe2565b005b6060600380546105c590612b4c565b80601f01602080910402602001604051908101604052809291908181526020018280546105f190612b4c565b801561063e5780601f106106135761010080835404028352916020019161063e565b820191906000526020600020905b81548152906001019060200180831161062157829003601f168201915b5050505050905090565b600080610653611065565b905061066081858561106d565b600191505092915050565b6000600254905090565b60006040517f08c379a00000000000000000000000000000000000000000000000000000000081526004016106a990612bc9565b60405180910390fd5b60006012905090565b60006106c5611236565b905090565b6000806106d5611065565b90506106f68185856106e78589610e4b565b6106f19190612c18565b61106d565b600191505092915050565b6000438210610745576040517f08c379a000000000000000000000000000000000000000000000000000000000815260040161073c90612c98565b60405180910390fd5b61078d600860008573ffffffffffffffffffffffffffffffffffffffff1673ffffffffffffffffffffffffffffffffffffffff16815260200190815260200160002083611350565b905092915050565b6000600760008373ffffffffffffffffffffffffffffffffffffffff1673ffffffffffffffffffffffffffffffffffffffff16815260200190815260200160002060009054906101000a900473ffffffffffffffffffffffffffffffffffffffff169050919050565b61080f610809611065565b826114a1565b50565b600b5481565b6000610865600860008473ffffffffffffffffffffffffffffffffffffffff1673ffffffffffffffffffffffffffffffffffffffff168152602001908152602001600020805490506115bb565b9050919050565b60008060008373ffffffffffffffffffffffffffffffffffffffff1673ffffffffffffffffffffffffffffffffffffffff168152602001908152602001600020549050919050565b6108bc61160e565b6108c6600061168c565b565b6000610911600560008473ffffffffffffffffffffffffffffffffffffffff1673ffffffffffffffffffffffffffffffffffffffff168152602001908152602001600020611752565b9050919050565b6000600a60009054906101000a900473ffffffffffffffffffffffffffffffffffffffff16905090565b6000438210610986576040517f08c379a000000000000000000000000000000000000000000000000000000000815260040161097d90612c98565b60405180910390fd5b610991600983611350565b9050919050565b6060600480546109a790612b4c565b80601f01602080910402602001604051908101604052809291908181526020018280546109d390612b4c565b8015610a205780601f106109f557610100808354040283529160200191610a20565b820191906000526020600020905b815481529060010190602001808311610a0357829003601f168201915b5050505050905090565b600080600860008473ffffffffffffffffffffffffffffffffffffffff1673ffffffffffffffffffffffffffffffffffffffff16815260200190815260200160002080549050905060008114610b1257600860008473ffffffffffffffffffffffffffffffffffffffff1673ffffffffffffffffffffffffffffffffffffffff168152602001908152602001600020600182610ac69190612cb8565b81548110610ad757610ad6612cec565b5b9060005260206000200160000160049054906101000a90047bffffffffffffffffffffffffffffffffffffffffffffffffffffffff16610b15565b60005b7bffffffffffffffffffffffffffffffffffffffffffffffffffffffff16915050919050565b600080610b46611065565b90506000610b548286610e4b565b905083811015610b99576040517f08c379a0000000000000000000000000000000000000000000000000000000008152600401610b9090612d8d565b60405180910390fd5b610ba6828686840361106d565b60019250505092915050565b610bba61160e565b610bc48282611760565b5050565b60006040517f08c379a0000000000000000000000000000000000000000000000000000000008152600401610bfc90612bc9565b60405180910390fd5b83421115610c48576040517f08c379a0000000000000000000000000000000000000000000000000000000008152600401610c3f90612df9565b60405180910390fd5b6000610caa610ca27fe48329057bfd03d55e49b547132e39cffd9c1820ad7b9d4c5307691425d15adf898989604051602001610c879493929190612e19565b6040516020818303038152906040528051906020012061176e565b858585611788565b9050610cb5816117b3565b8614610cf6576040517f08c379a0000000000000000000000000000000000000000000000000000000008152600401610ced90612eaa565b60405180910390fd5b610d0081886114a1565b50505050505050565b83421115610d4c576040517f08c379a0000000000000000000000000000000000000000000000000000000008152600401610d4390612f16565b60405180910390fd5b60007f6e71edae12b1b97f4d1f60370fef10105fa2faae0126114a169c64845d6126c9888888610d7b8c6117b3565b89604051602001610d9196959493929190612f36565b6040516020818303038152906040528051906020012090506000610db48261176e565b90506000610dc482878787611788565b90508973ffffffffffffffffffffffffffffffffffffffff168173ffffffffffffffffffffffffffffffffffffffff1614610e34576040517f08c379a0000000000000000000000000000000000000000000000000000000008152600401610e2b90612fe3565b60405180910390fd5b610e3f8a8a8a61106d565b50505050505050505050565b6000600160008473ffffffffffffffffffffffffffffffffffffffff1673ffffffffffffffffffffffffffffffffffffffff16815260200190815260200160002060008373ffffffffffffffffffffffffffffffffffffffff1673ffffffffffffffffffffffffffffffffffffffff16815260200190815260200160002054905092915050565b610eda6124b5565b600860008473ffffffffffffffffffffffffffffffffffffffff1673ffffffffffffffffffffffffffffffffffffffff1681526020019081526020016000208263ffffffff1681548110610f3157610f30612cec565b5b906000526020600020016040518060400160405290816000820160009054906101000a900463ffffffff1663ffffffff1663ffffffff1681526020016000820160049054906101000a90047bffffffffffffffffffffffffffffffffffffffffffffffffffffffff167bffffffffffffffffffffffffffffffffffffffffffffffffffffffff167bffffffffffffffffffffffffffffffffffffffffffffffffffffffff1681525050905092915050565b610fea61160e565b600073ffffffffffffffffffffffffffffffffffffffff168173ffffffffffffffffffffffffffffffffffffffff1603611059576040517f08c379a000000000000000000000000000000000000000000000000000000000815260040161105090613075565b60405180910390fd5b6110628161168c565b50565b600033905090565b600073ffffffffffffffffffffffffffffffffffffffff168373ffffffffffffffffffffffffffffffffffffffff16036110dc576040517f08c379a00000000000000000000000000000000000000000000000000000000081526004016110d390613107565b60405180910390fd5b600073ffffffffffffffffffffffffffffffffffffffff168273ffffffffffffffffffffffffffffffffffffffff160361114b576040517f08c379a000000000000000000000000000000000000000000000000000000000815260040161114290613199565b60405180910390fd5b80600160008573ffffffffffffffffffffffffffffffffffffffff1673ffffffffffffffffffffffffffffffffffffffff16815260200190815260200160002060008473ffffffffffffffffffffffffffffffffffffffff1673ffffffffffffffffffffffffffffffffffffffff168152602001908152602001600020819055508173ffffffffffffffffffffffffffffffffffffffff168373ffffffffffffffffffffffffffffffffffffffff167f8c5be1e5ebec7d5bd14f71427d1e84f3dd0314c0f7b2291e5b200ac8c7c3b9258360405161122991906126c3565b60405180910390a3505050565b60007f000000000000000000000000000000000000000000000000000000000000000073ffffffffffffffffffffffffffffffffffffffff163073ffffffffffffffffffffffffffffffffffffffff161480156112b257507f000000000000000000000000000000000000000000000000000000000000000046145b156112df577f0000000000000000000000000000000000000000000000000000000000000000905061134d565b61134a7f00000000000000000000000000000000000000000000000000000000000000007f00000000000000000000000000000000000000000000000000000000000000007f0000000000000000000000000000000000000000000000000000000000000000611811565b90505b90565b6000808380549050905060008082905060058311156113c65760006113748461184b565b8461137f9190612cb8565b90508561138c8883611944565b60000160009054906101000a900463ffffffff1663ffffffff1611156113b4578091506113c4565b6001816113c19190612c18565b92505b505b5b808210156114265760006113db8383611959565b9050856113e88883611944565b60000160009054906101000a900463ffffffff1663ffffffff16111561141057809150611420565b60018161141d9190612c18565b92505b506113c7565b60008114611475576114448660018361143f9190612cb8565b611944565b60000160049054906101000a90047bffffffffffffffffffffffffffffffffffffffffffffffffffffffff16611478565b60005b7bffffffffffffffffffffffffffffffffffffffffffffffffffffffff16935050505092915050565b60006114ac83610795565b905060006114b98461086c565b905082600760008673ffffffffffffffffffffffffffffffffffffffff1673ffffffffffffffffffffffffffffffffffffffff16815260200190815260200160002060006101000a81548173ffffffffffffffffffffffffffffffffffffffff021916908373ffffffffffffffffffffffffffffffffffffffff1602179055508273ffffffffffffffffffffffffffffffffffffffff168273ffffffffffffffffffffffffffffffffffffffff168573ffffffffffffffffffffffffffffffffffffffff167f3134e8a2e6d97e929a7e54011ea5485d7d196dd5f0ba4d4ef95803e8e3fc257f60405160405180910390a46115b582848361197f565b50505050565b600063ffffffff8016821115611606576040517f08c379a00000000000000000000000000000000000000000000000000000000081526004016115fd9061322b565b60405180910390fd5b819050919050565b611616611065565b73ffffffffffffffffffffffffffffffffffffffff16611634610918565b73ffffffffffffffffffffffffffffffffffffffff161461168a576040517f08c379a000000000000000000000000000000000000000000000000000000000815260040161168190613297565b60405180910390fd5b565b6000600a60009054906101000a900473ffffffffffffffffffffffffffffffffffffffff16905081600a60006101000a81548173ffffffffffffffffffffffffffffffffffffffff021916908373ffffffffffffffffffffffffffffffffffffffff1602179055508173ffffffffffffffffffffffffffffffffffffffff168173ffffffffffffffffffffffffffffffffffffffff167f8be0079c531659141344cd1fd0a4f28419497f9722a3daafe3b4186f6b6457e060405160405180910390a35050565b600081600001549050919050565b61176a8282611b78565b5050565b600061178161177b611236565b83611c05565b9050919050565b600080600061179987878787611c38565b915091506117a681611d1a565b8192505050949350505050565b600080600560008473ffffffffffffffffffffffffffffffffffffffff1673ffffffffffffffffffffffffffffffffffffffff168152602001908152602001600020905061180081611752565b915061180b81611e80565b50919050565b6000838383463060405160200161182c9594939291906132b7565b6040516020818303038152906040528051906020012090509392505050565b600080820361185d576000905061193f565b6000600161186a84611e96565b901c6001901b905060018184816118845761188361330a565b5b048201901c9050600181848161189d5761189c61330a565b5b048201901c905060018184816118b6576118b561330a565b5b048201901c905060018184816118cf576118ce61330a565b5b048201901c905060018184816118e8576118e761330a565b5b048201901c905060018184816119015761190061330a565b5b048201901c9050600181848161191a5761191961330a565b5b048201901c905061193b818285816119355761193461330a565b5b04611f77565b9150505b919050565b60008260005281602060002001905092915050565b6000600282841861196a9190613339565b8284166119779190612c18565b905092915050565b8173ffffffffffffffffffffffffffffffffffffffff168373ffffffffffffffffffffffffffffffffffffffff16141580156119bb5750600081115b15611b7357600073ffffffffffffffffffffffffffffffffffffffff168373ffffffffffffffffffffffffffffffffffffffff1614611a9957600080611a42600860008773ffffffffffffffffffffffffffffffffffffffff1673ffffffffffffffffffffffffffffffffffffffff168152602001908152602001600020611f9085611fa6565b915091508473ffffffffffffffffffffffffffffffffffffffff167fdec2bacdd2f05b59de34da9b523dff8be42e5e38e818c82fdb0bae774387a7248383604051611a8e92919061336a565b60405180910390a250505b600073ffffffffffffffffffffffffffffffffffffffff168273ffffffffffffffffffffffffffffffffffffffff1614611b7257600080611b1b600860008673ffffffffffffffffffffffffffffffffffffffff1673ffffffffffffffffffffffffffffffffffffffff16815260200190815260200160002061227585611fa6565b915091508373ffffffffffffffffffffffffffffffffffffffff167fdec2bacdd2f05b59de34da9b523dff8be42e5e38e818c82fdb0bae774387a7248383604051611b6792919061336a565b60405180910390a250505b5b505050565b611b82828261228b565b611b8a6123e1565b7bffffffffffffffffffffffffffffffffffffffffffffffffffffffff16611bb061066b565b1115611bf1576040517f08c379a0000000000000000000000000000000000000000000000000000000008152600401611be890613405565b60405180910390fd5b611bff600961227583611fa6565b50505050565b60008282604051602001611c1a92919061349d565b60405160208183030381529060405280519060200120905092915050565b6000807f7fffffffffffffffffffffffffffffff5d576e7357a4501ddfe92f46681b20a08360001c1115611c73576000600391509150611d11565b600060018787878760405160008152602001604052604051611c9894939291906134d4565b6020604051602081039080840390855afa158015611cba573d6000803e3d6000fd5b505050602060405103519050600073ffffffffffffffffffffffffffffffffffffffff168173ffffffffffffffffffffffffffffffffffffffff1603611d0857600060019250925050611d11565b80600092509250505b94509492505050565b60006004811115611d2e57611d2d613519565b5b816004811115611d4157611d40613519565b5b0315611e7d5760016004811115611d5b57611d5a613519565b5b816004811115611d6e57611d6d613519565b5b03611dae576040517f08c379a0000000000000000000000000000000000000000000000000000000008152600401611da590613594565b60405180910390fd5b60026004811115611dc257611dc1613519565b5b816004811115611dd557611dd4613519565b5b03611e15576040517f08c379a0000000000000000000000000000000000000000000000000000000008152600401611e0c90613600565b60405180910390fd5b60036004811115611e2957611e28613519565b5b816004811115611e3c57611e3b613519565b5b03611e7c576040517f08c379a0000000000000000000000000000000000000000000000000000000008152600401611e7390613692565b60405180910390fd5b5b50565b6001816000016000828254019250508190555050565b600080600090506000608084901c1115611eb857608083901c92506080810190505b6000604084901c1115611ed357604083901c92506040810190505b6000602084901c1115611eee57602083901c92506020810190505b6000601084901c1115611f0957601083901c92506010810190505b6000600884901c1115611f2457600883901c92506008810190505b6000600484901c1115611f3f57600483901c92506004810190505b6000600284901c1115611f5a57600283901c92506002810190505b6000600184901c1115611f6e576001810190505b80915050919050565b6000818310611f865781611f88565b825b905092915050565b60008183611f9e9190612cb8565b905092915050565b600080600085805490509050600080821461207557611fd187600184611fcc9190612cb8565b611944565b6040518060400160405290816000820160009054906101000a900463ffffffff1663ffffffff1663ffffffff1681526020016000820160049054906101000a90047bffffffffffffffffffffffffffffffffffffffffffffffffffffffff167bffffffffffffffffffffffffffffffffffffffffffffffffffffffff167bffffffffffffffffffffffffffffffffffffffffffffffffffffffff16815250506120b1565b6040518060400160405280600063ffffffff16815260200160007bffffffffffffffffffffffffffffffffffffffffffffffffffffffff168152505b905080602001517bffffffffffffffffffffffffffffffffffffffffffffffffffffffff1693506120e684868863ffffffff16565b9250600082118015612101575043816000015163ffffffff16145b1561217b5761210f83612405565b612125886001856121209190612cb8565b611944565b60000160046101000a8154817bffffffffffffffffffffffffffffffffffffffffffffffffffffffff02191690837bffffffffffffffffffffffffffffffffffffffffffffffffffffffff16021790555061226b565b866040518060400160405280612190436115bb565b63ffffffff1681526020016121a486612405565b7bffffffffffffffffffffffffffffffffffffffffffffffffffffffff168152509080600181540180825580915050600190039060005260206000200160009091909190915060008201518160000160006101000a81548163ffffffff021916908363ffffffff16021790555060208201518160000160046101000a8154817bffffffffffffffffffffffffffffffffffffffffffffffffffffffff02191690837bffffffffffffffffffffffffffffffffffffffffffffffffffffffff16021790555050505b5050935093915050565b600081836122839190612c18565b905092915050565b600073ffffffffffffffffffffffffffffffffffffffff168273ffffffffffffffffffffffffffffffffffffffff16036122fa576040517f08c379a00000000000000000000000000000000000000000000000000000000081526004016122f1906136fe565b60405180910390fd5b61230660008383612470565b80600260008282546123189190612c18565b92505081905550806000808473ffffffffffffffffffffffffffffffffffffffff1673ffffffffffffffffffffffffffffffffffffffff168152602001908152602001600020600082825401925050819055508173ffffffffffffffffffffffffffffffffffffffff16600073ffffffffffffffffffffffffffffffffffffffff167fddf252ad1be2c89b69c2b068fc378daa952ba7f163c4a11628f55a4df523b3ef836040516123c991906126c3565b60405180910390a36123dd60008383612475565b5050565b60007bffffffffffffffffffffffffffffffffffffffffffffffffffffffff905090565b60007bffffffffffffffffffffffffffffffffffffffffffffffffffffffff8016821115612468576040517f08c379a000000000000000000000000000000000000000000000000000000000815260040161245f90613790565b60405180910390fd5b819050919050565b505050565b612480838383612485565b505050565b6124908383836124b0565b6124ab61249c84610795565b6124a584610795565b8361197f565b505050565b505050565b6040518060400160405280600063ffffffff16815260200160007bffffffffffffffffffffffffffffffffffffffffffffffffffffffff1681525090565b600081519050919050565b600082825260208201905092915050565b60005b8381101561252d578082015181840152602081019050612512565b60008484015250505050565b6000601f19601f8301169050919050565b6000612555826124f3565b61255f81856124fe565b935061256f81856020860161250f565b61257881612539565b840191505092915050565b6000602082019050818103600083015261259d818461254a565b905092915050565b600080fd5b600073ffffffffffffffffffffffffffffffffffffffff82169050919050565b60006125d5826125aa565b9050919050565b6125e5816125ca565b81146125f057600080fd5b50565b600081359050612602816125dc565b92915050565b6000819050919050565b61261b81612608565b811461262657600080fd5b50565b60008135905061263881612612565b92915050565b60008060408385031215612655576126546125a5565b5b6000612663858286016125f3565b925050602061267485828601612629565b9150509250929050565b60008115159050919050565b6126938161267e565b82525050565b60006020820190506126ae600083018461268a565b92915050565b6126bd81612608565b82525050565b60006020820190506126d860008301846126b4565b92915050565b6000806000606084860312156126f7576126f66125a5565b5b6000612705868287016125f3565b9350506020612716868287016125f3565b925050604061272786828701612629565b9150509250925092565b600060ff82169050919050565b61274781612731565b82525050565b6000602082019050612762600083018461273e565b92915050565b6000819050919050565b61277b81612768565b82525050565b60006020820190506127966000830184612772565b92915050565b6000602082840312156127b2576127b16125a5565b5b60006127c0848285016125f3565b91505092915050565b6127d2816125ca565b82525050565b60006020820190506127ed60008301846127c9565b92915050565b600063ffffffff82169050919050565b61280c816127f3565b82525050565b60006020820190506128276000830184612803565b92915050565b600060208284031215612843576128426125a5565b5b600061285184828501612629565b91505092915050565b61286381612731565b811461286e57600080fd5b50565b6000813590506128808161285a565b92915050565b61288f81612768565b811461289a57600080fd5b50565b6000813590506128ac81612886565b92915050565b60008060008060008060c087890312156128cf576128ce6125a5565b5b60006128dd89828a016125f3565b96505060206128ee89828a01612629565b95505060406128ff89828a01612629565b945050606061291089828a01612871565b935050608061292189828a0161289d565b92505060a061293289828a0161289d565b9150509295509295509295565b600080600080600080600060e0888a03121561295e5761295d6125a5565b5b600061296c8a828b016125f3565b975050602061297d8a828b016125f3565b965050604061298e8a828b01612629565b955050606061299f8a828b01612629565b94505060806129b08a828b01612871565b93505060a06129c18a828b0161289d565b92505060c06129d28a828b0161289d565b91505092959891949750929550565b600080604083850312156129f8576129f76125a5565b5b6000612a06858286016125f3565b9250506020612a17858286016125f3565b9150509250929050565b612a2a816127f3565b8114612a3557600080fd5b50565b600081359050612a4781612a21565b92915050565b60008060408385031215612a6457612a636125a5565b5b6000612a72858286016125f3565b9250506020612a8385828601612a38565b9150509250929050565b612a96816127f3565b82525050565b60007bffffffffffffffffffffffffffffffffffffffffffffffffffffffff82169050919050565b612acd81612a9c565b82525050565b604082016000820151612ae96000850182612a8d565b506020820151612afc6020850182612ac4565b50505050565b6000604082019050612b176000830184612ad3565b92915050565b7f4e487b7100000000000000000000000000000000000000000000000000000000600052602260045260246000fd5b60006002820490506001821680612b6457607f821691505b602082108103612b7757612b76612b1d565b5b50919050565b7f43616e6e6f74207472616e7366657220736f756c626f756e6420546f6b656e73600082015250565b6000612bb36020836124fe565b9150612bbe82612b7d565b602082019050919050565b60006020820190508181036000830152612be281612ba6565b9050919050565b7f4e487b7100000000000000000000000000000000000000000000000000000000600052601160045260246000fd5b6000612c2382612608565b9150612c2e83612608565b9250828201905080821115612c4657612c45612be9565b5b92915050565b7f4552433230566f7465733a20626c6f636b206e6f7420796574206d696e656400600082015250565b6000612c82601f836124fe565b9150612c8d82612c4c565b602082019050919050565b60006020820190508181036000830152612cb181612c75565b9050919050565b6000612cc382612608565b9150612cce83612608565b9250828203905081811115612ce657612ce5612be9565b5b92915050565b7f4e487b7100000000000000000000000000000000000000000000000000000000600052603260045260246000fd5b7f45524332303a2064656372656173656420616c6c6f77616e63652062656c6f7760008201527f207a65726f000000000000000000000000000000000000000000000000000000602082015250565b6000612d776025836124fe565b9150612d8282612d1b565b604082019050919050565b60006020820190508181036000830152612da681612d6a565b9050919050565b7f4552433230566f7465733a207369676e61747572652065787069726564000000600082015250565b6000612de3601d836124fe565b9150612dee82612dad565b602082019050919050565b60006020820190508181036000830152612e1281612dd6565b9050919050565b6000608082019050612e2e6000830187612772565b612e3b60208301866127c9565b612e4860408301856126b4565b612e5560608301846126b4565b95945050505050565b7f4552433230566f7465733a20696e76616c6964206e6f6e636500000000000000600082015250565b6000612e946019836124fe565b9150612e9f82612e5e565b602082019050919050565b60006020820190508181036000830152612ec381612e87565b9050919050565b7f45524332305065726d69743a206578706972656420646561646c696e65000000600082015250565b6000612f00601d836124fe565b9150612f0b82612eca565b602082019050919050565b60006020820190508181036000830152612f2f81612ef3565b9050919050565b600060c082019050612f4b6000830189612772565b612f5860208301886127c9565b612f6560408301876127c9565b612f7260608301866126b4565b612f7f60808301856126b4565b612f8c60a08301846126b4565b979650505050505050565b7f45524332305065726d69743a20696e76616c6964207369676e61747572650000600082015250565b6000612fcd601e836124fe565b9150612fd882612f97565b602082019050919050565b60006020820190508181036000830152612ffc81612fc0565b9050919050565b7f4f776e61626c653a206e6577206f776e657220697320746865207a65726f206160008201527f6464726573730000000000000000000000000000000000000000000000000000602082015250565b600061305f6026836124fe565b915061306a82613003565b604082019050919050565b6000602082019050818103600083015261308e81613052565b9050919050565b7f45524332303a20617070726f76652066726f6d20746865207a65726f2061646460008201527f7265737300000000000000000000000000000000000000000000000000000000602082015250565b60006130f16024836124fe565b91506130fc82613095565b604082019050919050565b60006020820190508181036000830152613120816130e4565b9050919050565b7f45524332303a20617070726f766520746f20746865207a65726f20616464726560008201527f7373000000000000000000000000000000000000000000000000000000000000602082015250565b60006131836022836124fe565b915061318e82613127565b604082019050919050565b600060208201905081810360008301526131b281613176565b9050919050565b7f53616665436173743a2076616c756520646f65736e27742066697420696e203360008201527f3220626974730000000000000000000000000000000000000000000000000000602082015250565b60006132156026836124fe565b9150613220826131b9565b604082019050919050565b6000602082019050818103600083015261324481613208565b9050919050565b7f4f776e61626c653a2063616c6c6572206973206e6f7420746865206f776e6572600082015250565b60006132816020836124fe565b915061328c8261324b565b602082019050919050565b600060208201905081810360008301526132b081613274565b9050919050565b600060a0820190506132cc6000830188612772565b6132d96020830187612772565b6132e66040830186612772565b6132f360608301856126b4565b61330060808301846127c9565b9695505050505050565b7f4e487b7100000000000000000000000000000000000000000000000000000000600052601260045260246000fd5b600061334482612608565b915061334f83612608565b92508261335f5761335e61330a565b5b828204905092915050565b600060408201905061337f60008301856126b4565b61338c60208301846126b4565b9392505050565b7f4552433230566f7465733a20746f74616c20737570706c79207269736b73206f60008201527f766572666c6f77696e6720766f74657300000000000000000000000000000000602082015250565b60006133ef6030836124fe565b91506133fa82613393565b604082019050919050565b6000602082019050818103600083015261341e816133e2565b9050919050565b600081905092915050565b7f1901000000000000000000000000000000000000000000000000000000000000600082015250565b6000613466600283613425565b915061347182613430565b600282019050919050565b6000819050919050565b61349761349282612768565b61347c565b82525050565b60006134a882613459565b91506134b48285613486565b6020820191506134c48284613486565b6020820191508190509392505050565b60006080820190506134e96000830187612772565b6134f6602083018661273e565b6135036040830185612772565b6135106060830184612772565b95945050505050565b7f4e487b7100000000000000000000000000000000000000000000000000000000600052602160045260246000fd5b7f45434453413a20696e76616c6964207369676e61747572650000000000000000600082015250565b600061357e6018836124fe565b915061358982613548565b602082019050919050565b600060208201905081810360008301526135ad81613571565b9050919050565b7f45434453413a20696e76616c6964207369676e6174757265206c656e67746800600082015250565b60006135ea601f836124fe565b91506135f5826135b4565b602082019050919050565b60006020820190508181036000830152613619816135dd565b9050919050565b7f45434453413a20696e76616c6964207369676e6174757265202773272076616c60008201527f7565000000000000000000000000000000000000000000000000000000000000602082015250565b600061367c6022836124fe565b915061368782613620565b604082019050919050565b600060208201905081810360008301526136ab8161366f565b9050919050565b7f45524332303a206d696e7420746f20746865207a65726f206164647265737300600082015250565b60006136e8601f836124fe565b91506136f3826136b2565b602082019050919050565b60006020820190508181036000830152613717816136db565b9050919050565b7f53616665436173743a2076616c756520646f65736e27742066697420696e203260008201527f3234206269747300000000000000000000000000000000000000000000000000602082015250565b600061377a6027836124fe565b91506137858261371e565b604082019050919050565b600060208201905081810360008301526137a98161376d565b905091905056fea264697066735822122081d0690ad7b8afb014bef6c3829cb8d5e042ad35eed9e97d4617f8f2f4e04d1264736f6c63430008130033",
  "linkReferences": {},
  "deployedLinkReferences": {}
}